{
  "_format": "hh-sol-artifact-1",
  "contractName": "Crow",
  "sourceName": "src/contracts/Crow.sol",
  "abi": [
    {
      "inputs": [
        {
          "internalType": "uint256",
          "name": "_projectTax",
          "type": "uint256"
        }
      ],
      "stateMutability": "nonpayable",
      "type": "constructor"
    },
    {
      "anonymous": false,
      "inputs": [
        {
          "indexed": false,
          "internalType": "uint256",
          "name": "id",
          "type": "uint256"
        },
        {
          "indexed": false,
          "internalType": "string",
          "name": "actionType",
          "type": "string"
        },
        {
          "indexed": true,
          "internalType": "address",
          "name": "executor",
          "type": "address"
        },
        {
          "indexed": false,
          "internalType": "uint256",
          "name": "timestamp",
          "type": "uint256"
        }
      ],
      "name": "Action",
      "type": "event"
    },
    {
      "inputs": [
        {
          "internalType": "uint256",
          "name": "id",
          "type": "uint256"
        }
      ],
      "name": "backProject",
      "outputs": [
        {
          "internalType": "bool",
          "name": "",
          "type": "bool"
        }
      ],
      "stateMutability": "payable",
      "type": "function"
    },
    {
      "inputs": [],
      "name": "balance",
      "outputs": [
        {
          "internalType": "uint256",
          "name": "",
          "type": "uint256"
        }
      ],
      "stateMutability": "view",
      "type": "function"
    },
    {
      "inputs": [
        {
          "internalType": "uint256",
          "name": "_taxPct",
          "type": "uint256"
        }
      ],
      "name": "changeTax",
      "outputs": [],
      "stateMutability": "nonpayable",
      "type": "function"
    },
    {
      "inputs": [
        {
          "internalType": "string",
          "name": "title",
          "type": "string"
        },
        {
          "internalType": "string",
          "name": "description",
          "type": "string"
        },
        {
          "internalType": "string",
          "name": "imageURL",
          "type": "string"
        },
        {
          "internalType": "uint256",
          "name": "cost",
          "type": "uint256"
        },
        {
          "internalType": "uint256",
          "name": "expiresAt",
          "type": "uint256"
        }
      ],
      "name": "createProject",
      "outputs": [
        {
          "internalType": "bool",
          "name": "",
          "type": "bool"
        }
      ],
      "stateMutability": "nonpayable",
      "type": "function"
    },
    {
      "inputs": [
        {
          "internalType": "uint256",
          "name": "id",
          "type": "uint256"
        }
      ],
      "name": "deleteProject",
      "outputs": [
        {
          "internalType": "bool",
          "name": "",
          "type": "bool"
        }
      ],
      "stateMutability": "nonpayable",
      "type": "function"
    },
    {
      "inputs": [
        {
          "internalType": "uint256",
          "name": "id",
          "type": "uint256"
        }
      ],
      "name": "getBackers",
      "outputs": [
        {
          "components": [
            {
              "internalType": "address",
              "name": "owner",
              "type": "address"
            },
            {
              "internalType": "uint256",
              "name": "contribution",
              "type": "uint256"
            },
            {
              "internalType": "uint256",
              "name": "timestamp",
              "type": "uint256"
            },
            {
              "internalType": "bool",
              "name": "refunded",
              "type": "bool"
            }
          ],
          "internalType": "struct Crow.backerStruct[]",
          "name": "",
          "type": "tuple[]"
        }
      ],
      "stateMutability": "view",
      "type": "function"
    },
    {
      "inputs": [
        {
          "internalType": "uint256",
          "name": "id",
          "type": "uint256"
        }
      ],
      "name": "getProject",
      "outputs": [
        {
          "components": [
            {
              "internalType": "uint256",
              "name": "id",
              "type": "uint256"
            },
            {
              "internalType": "address",
              "name": "owner",
              "type": "address"
            },
            {
              "internalType": "string",
              "name": "title",
              "type": "string"
            },
            {
              "internalType": "string",
              "name": "description",
              "type": "string"
            },
            {
              "internalType": "string",
              "name": "imageURL",
              "type": "string"
            },
            {
              "internalType": "uint256",
              "name": "cost",
              "type": "uint256"
            },
            {
              "internalType": "uint256",
              "name": "raised",
              "type": "uint256"
            },
            {
              "internalType": "uint256",
              "name": "timestamp",
              "type": "uint256"
            },
            {
              "internalType": "uint256",
              "name": "expiresAt",
              "type": "uint256"
            },
            {
              "internalType": "uint256",
              "name": "backers",
              "type": "uint256"
            },
            {
              "internalType": "enum Crow.statusEnum",
              "name": "status",
              "type": "uint8"
            }
          ],
          "internalType": "struct Crow.projectStruct",
          "name": "",
          "type": "tuple"
        }
      ],
      "stateMutability": "view",
      "type": "function"
    },
    {
      "inputs": [],
      "name": "getProjects",
      "outputs": [
        {
          "components": [
            {
              "internalType": "uint256",
              "name": "id",
              "type": "uint256"
            },
            {
              "internalType": "address",
              "name": "owner",
              "type": "address"
            },
            {
              "internalType": "string",
              "name": "title",
              "type": "string"
            },
            {
              "internalType": "string",
              "name": "description",
              "type": "string"
            },
            {
              "internalType": "string",
              "name": "imageURL",
              "type": "string"
            },
            {
              "internalType": "uint256",
              "name": "cost",
              "type": "uint256"
            },
            {
              "internalType": "uint256",
              "name": "raised",
              "type": "uint256"
            },
            {
              "internalType": "uint256",
              "name": "timestamp",
              "type": "uint256"
            },
            {
              "internalType": "uint256",
              "name": "expiresAt",
              "type": "uint256"
            },
            {
              "internalType": "uint256",
              "name": "backers",
              "type": "uint256"
            },
            {
              "internalType": "enum Crow.statusEnum",
              "name": "status",
              "type": "uint8"
            }
          ],
          "internalType": "struct Crow.projectStruct[]",
          "name": "",
          "type": "tuple[]"
        }
      ],
      "stateMutability": "view",
      "type": "function"
    },
    {
      "inputs": [],
      "name": "owner",
      "outputs": [
        {
          "internalType": "address",
          "name": "",
          "type": "address"
        }
      ],
      "stateMutability": "view",
      "type": "function"
    },
    {
      "inputs": [
        {
          "internalType": "uint256",
          "name": "id",
          "type": "uint256"
        }
      ],
      "name": "payOutProject",
      "outputs": [
        {
          "internalType": "bool",
          "name": "",
          "type": "bool"
        }
      ],
      "stateMutability": "nonpayable",
      "type": "function"
    },
    {
      "inputs": [],
      "name": "projectCount",
      "outputs": [
        {
          "internalType": "uint256",
          "name": "",
          "type": "uint256"
        }
      ],
      "stateMutability": "view",
      "type": "function"
    },
    {
      "inputs": [
        {
          "internalType": "uint256",
          "name": "",
          "type": "uint256"
        }
      ],
      "name": "projectExist",
      "outputs": [
        {
          "internalType": "bool",
          "name": "",
          "type": "bool"
        }
      ],
      "stateMutability": "view",
      "type": "function"
    },
    {
      "inputs": [],
      "name": "projectTax",
      "outputs": [
        {
          "internalType": "uint256",
          "name": "",
          "type": "uint256"
        }
      ],
      "stateMutability": "view",
      "type": "function"
    },
    {
      "inputs": [
        {
          "internalType": "uint256",
          "name": "id",
          "type": "uint256"
        }
      ],
      "name": "requestRefund",
      "outputs": [
        {
          "internalType": "bool",
          "name": "",
          "type": "bool"
        }
      ],
      "stateMutability": "nonpayable",
      "type": "function"
    },
    {
      "inputs": [],
      "name": "stats",
      "outputs": [
        {
          "internalType": "uint256",
          "name": "totalProjects",
          "type": "uint256"
        },
        {
          "internalType": "uint256",
          "name": "totalBacking",
          "type": "uint256"
        },
        {
          "internalType": "uint256",
          "name": "totalDonations",
          "type": "uint256"
        }
      ],
      "stateMutability": "view",
      "type": "function"
    },
    {
      "inputs": [
        {
          "internalType": "uint256",
          "name": "id",
          "type": "uint256"
        },
        {
          "internalType": "string",
          "name": "title",
          "type": "string"
        },
        {
          "internalType": "string",
          "name": "description",
          "type": "string"
        },
        {
          "internalType": "string",
          "name": "imageURL",
          "type": "string"
        },
        {
          "internalType": "uint256",
          "name": "expiresAt",
          "type": "uint256"
        }
      ],
      "name": "updateProject",
      "outputs": [
        {
          "internalType": "bool",
          "name": "",
          "type": "bool"
        }
      ],
      "stateMutability": "nonpayable",
      "type": "function"
    }
  ],
  "bytecode": "0x608060405234801561001057600080fd5b5060405161231338038061231383398101604081905261002f91610049565b600080546001600160a01b03191633179055600155610062565b60006020828403121561005b57600080fd5b5051919050565b6122a2806100716000396000f3fe6080604052600436106100f35760003560e01c8063a4b2409e1161008a578063d24cd3ec11610059578063d24cd3ec146102b1578063d80528ae146102c7578063dcc6012814610301578063f0f3f2c81461032357600080fd5b8063a4b2409e1461022e578063b531dcba1461024e578063b69ef8a81461026e578063c9168b721461028457600080fd5b80638593054b116100c65780638593054b146101935780638da5cb5b146101c35780639a3fa8c7146101fb5780639f39a1941461021b57600080fd5b8063056c29ee146100f857806336fbad261461012d5780633e45c8af146101515780634cd0cb2814610173575b600080fd5b34801561010457600080fd5b50610118610113366004611db2565b610350565b60405190151581526020015b60405180910390f35b34801561013957600080fd5b5061014360025481565b604051908152602001610124565b34801561015d57600080fd5b5061017161016c366004611e4c565b610818565b005b34801561017f57600080fd5b5061011861018e366004611e4c565b610895565b34801561019f57600080fd5b506101186101ae366004611e4c565b600a6020526000908152604090205460ff1681565b3480156101cf57600080fd5b506000546101e3906001600160a01b031681565b6040516001600160a01b039091168152602001610124565b34801561020757600080fd5b50610118610216366004611e65565b610a22565b610118610229366004611e4c565b610c96565b34801561023a57600080fd5b50610118610249366004611e4c565b611096565b34801561025a57600080fd5b50610118610269366004611e4c565b61118d565b34801561027a57600080fd5b5061014360035481565b34801561029057600080fd5b506102a461029f366004611e4c565b61129c565b6040516101249190611eff565b3480156102bd57600080fd5b5061014360015481565b3480156102d357600080fd5b506004546005546006546102e692919083565b60408051938452602084019290925290820152606001610124565b34801561030d57600080fd5b5061031661133e565b60405161012491906120b8565b34801561032f57600080fd5b5061034361033e366004611e4c565b6115d9565b604051610124919061211a565b6000808651116103a75760405162461bcd60e51b815260206004820152601c60248201527f5469746c65206d7573742062652067726561746572207468616e20300000000060448201526064015b60405180910390fd5b60008551116103f85760405162461bcd60e51b815260206004820152601b60248201527f4465736372697074696f6e2063616e6e6f7420626520656d7074790000000000604482015260640161039e565b60008451116104415760405162461bcd60e51b8152602060048201526015602482015274496d6167652063616e6e6f7420626520656d70747960581b604482015260640161039e565b600083116104915760405162461bcd60e51b815260206004820152601b60248201527f636f7374206d7573742062652067726561746572207468616e20300000000000604482015260640161039e565b600083116104e15760405162461bcd60e51b815260206004820152601b60248201527f636f7374206d7573742062652067726561746572207468616e20300000000000604482015260640161039e565b6104e9611c03565b600254815233602080830191825260408301898152606084018990526080840188905260a084018790524260e085015261010084018690526007805460018101825560009190915284517fa66cc928b5edb82af9bd49922954155ab7b0942694bea4ce44661d9a8736c688600b90920291820190815593517fa66cc928b5edb82af9bd49922954155ab7b0942694bea4ce44661d9a8736c689820180546001600160a01b0319166001600160a01b03909216919091179055905180518594936105d6937fa66cc928b5edb82af9bd49922954155ab7b0942694bea4ce44661d9a8736c68a01920190611c76565b50606082015180516105f2916003840191602090910190611c76565b506080820151805161060e916004840191602090910190611c76565b5060a0820151600582015560c0820151600682015560e0820151600782015561010082015160088201556101208201516009820155610140820151600a8201805460ff1916600183600481111561066757610667611fbb565b021790555050600280546000908152600a602090815260408083208054600160ff1990911681179091553384526008835281842080548083018255908552938390208751600b909502019384558683015190840180546001600160a01b0319166001600160a01b03909216919091179055850151805186955092936106f493908501929190910190611c76565b5060608201518051610710916003840191602090910190611c76565b506080820151805161072c916004840191602090910190611c76565b5060a0820151600582015560c0820151600682015560e0820151600782015561010082015160088201556101208201516009820155610140820151600a8201805460ff1916600183600481111561078557610785611fbb565b021790555050506001600460000160008282546107a2919061214a565b909155505060028054339160008051602061224d833981519152919060006107c983612162565b9091555060408051918252606060208301819052600f908301526e141493d29150d50810d49150551151608a1b6080830152429082015260a00160405180910390a25060019695505050505050565b6000546001600160a01b031633146108905760405162461bcd60e51b815260206004820152603560248201527f4f6e6c79204f776e65722068617320746865207065726d697373696f6e2c20416044820152741d5d1a1bdc9a5e985d1a5bdb8814995d995c9cd959605a1b606482015260840161039e565b600155565b6000600782815481106108aa576108aa61217d565b60009182526020909120600b90910201600101546001600160a01b03163314806108de57506000546001600160a01b031633145b6108fa5760405162461bcd60e51b815260040161039e90612193565b60006007838154811061090f5761090f61217d565b60009182526020909120600a600b90920201015460ff16600481111561093757610937611fbb565b1461097a5760405162461bcd60e51b8152602060048201526013602482015272283937b532b1ba1034b9903737ba1037b832b760691b604482015260640161039e565b60036007838154811061098f5761098f61217d565b60009182526020909120600a600b9092020101805460ff191660018360048111156109bc576109bc611fbb565b02179055506109ca826118b9565b60408051838152606060208201819052600f908201526e141493d29150d50811115311551151608a1b608082015242818301529051339160008051602061224d833981519152919081900360a00190a2506001919050565b600060078681548110610a3757610a3761217d565b60009182526020909120600b90910201600101546001600160a01b03163314610a725760405162461bcd60e51b815260040161039e90612193565b6000855111610abb5760405162461bcd60e51b81526020600482015260156024820152745469746c652063616e6e6f7420626520656d70747960581b604482015260640161039e565b6000845111610b0c5760405162461bcd60e51b815260206004820152601b60248201527f4465736372697074696f6e2063616e6e6f7420626520656d7074790000000000604482015260640161039e565b6000835111610b555760405162461bcd60e51b8152602060048201526015602482015274496d6167652063616e6e6f7420626520656d70747960581b604482015260640161039e565b8460078781548110610b6957610b6961217d565b90600052602060002090600b02016002019080519060200190610b8d929190611c76565b508360078781548110610ba257610ba261217d565b90600052602060002090600b02016003019080519060200190610bc6929190611c76565b508260078781548110610bdb57610bdb61217d565b90600052602060002090600b02016004019080519060200190610bff929190611c76565b508160078781548110610c1457610c1461217d565b90600052602060002090600b020160080181905550336001600160a01b031660008051602061224d8339815191528742604051610c82929190918252606060208301819052600f908301526e141493d29150d50815541110551151608a1b6080830152604082015260a00190565b60405180910390a250600195945050505050565b6000803411610cde5760405162461bcd60e51b815260206004820152601460248201527345746865722063616e6e6f74206265205a65726f60601b604482015260640161039e565b6000828152600a602052604090205460ff16610d355760405162461bcd60e51b8152602060048201526016602482015275141c9bda9958dd08191bd95cc81b9bdd08115e1a5cdd60521b604482015260640161039e565b600060078381548110610d4a57610d4a61217d565b60009182526020909120600a600b90920201015460ff166004811115610d7257610d72611fbb565b14610db05760405162461bcd60e51b815260206004820152600e60248201526d141c9bda9958dd0810db1bdcd95960921b604482015260640161039e565b600160046001016000828254610dc6919061214a565b909155505060068054349190600090610de090849061214a565b925050819055503460078381548110610dfb57610dfb61217d565b90600052602060002090600b02016006016000828254610e1b919061214a565b92505081905550600160078381548110610e3757610e3761217d565b90600052602060002090600b02016009016000828254610e57919061214a565b9091555050600082815260096020908152604080832081516080808201845233808352348387019081524284870181815260608087018b8152885460018082018b55998d529b8b902097516004909c0290970180546001600160a01b0319166001600160a01b03909c169b909b178b559251968a01969096559451600289015592516003909701805460ff1916971515979097179096558351888152948501829052600e918501919091526d141493d29150d508109050d2d15160921b908401529082015260008051602061224d8339815191529060a00160405180910390a260078281548110610f4a57610f4a61217d565b90600052602060002090600b02016005015460078381548110610f6f57610f6f61217d565b90600052602060002090600b0201600601541061101a57600160078381548110610f9b57610f9b61217d565b60009182526020909120600a600b9092020101805460ff19166001836004811115610fc857610fc8611fbb565b021790555060078281548110610fe057610fe061217d565b90600052602060002090600b02016006015460036000828254611003919061214a565b90915550611012905082611a27565b506001919050565b6007828154811061102d5761102d61217d565b90600052602060002090600b0201600801544210156110125760026007838154811061105b5761105b61217d565b60009182526020909120600a600b9092020101805460ff1916600183600481111561108857611088611fbb565b0217905550611012826118b9565b60006002600783815481106110ad576110ad61217d565b60009182526020909120600a600b90920201015460ff1660048111156110d5576110d5611fbb565b14158061111d57506003600783815481106110f2576110f261217d565b60009182526020909120600a600b90920201015460ff16600481111561111a5761111a611fbb565b14155b6111785760405162461bcd60e51b815260206004820152602660248201527f50726f6a656374206e6f74206d61726b656420617320726576657274206f722060448201526564656c65746560d01b606482015260840161039e565b60026007838154811061105b5761105b61217d565b60006001600783815481106111a4576111a461217d565b60009182526020909120600a600b90920201015460ff1660048111156111cc576111cc611fbb565b146112305760405162461bcd60e51b815260206004820152602e60248201527f50726f6a656374206e6f7420415050524f5645442c205468757320596f75206360448201526d185b881b9bdd081c185e481bdd5d60921b606482015260840161039e565b600782815481106112435761124361217d565b60009182526020909120600b90910201600101546001600160a01b031633148061127757506000546001600160a01b031633145b6112935760405162461bcd60e51b815260040161039e90612193565b61101282611a27565b606060096000838152602001908152602001600020805480602002602001604051908101604052809291908181526020016000905b82821015611333576000848152602090819020604080516080810182526004860290920180546001600160a01b03168352600180820154848601526002820154928401929092526003015460ff161515606083015290835290920191016112d1565b505050509050919050565b60606007805480602002602001604051908101604052809291908181526020016000905b828210156115d05760008481526020908190206040805161016081018252600b86029092018054835260018101546001600160a01b031693830193909352600283018054929392918401916113b6906121b9565b80601f01602080910402602001604051908101604052809291908181526020018280546113e2906121b9565b801561142f5780601f106114045761010080835404028352916020019161142f565b820191906000526020600020905b81548152906001019060200180831161141257829003601f168201915b50505050508152602001600382018054611448906121b9565b80601f0160208091040260200160405190810160405280929190818152602001828054611474906121b9565b80156114c15780601f10611496576101008083540402835291602001916114c1565b820191906000526020600020905b8154815290600101906020018083116114a457829003601f168201915b505050505081526020016004820180546114da906121b9565b80601f0160208091040260200160405190810160405280929190818152602001828054611506906121b9565b80156115535780601f1061152857610100808354040283529160200191611553565b820191906000526020600020905b81548152906001019060200180831161153657829003601f168201915b505050918352505060058201546020820152600682015460408201526007820154606082015260088201546080820152600982015460a0820152600a82015460c09091019060ff1660048111156115ac576115ac611fbb565b60048111156115bd576115bd611fbb565b8152505081526020019060010190611362565b50505050905090565b6115e1611c03565b6000828152600a602052604090205460ff166116335760405162461bcd60e51b8152602060048201526011602482015270141c9bda9958dd081b9bdd08199bdd5b99607a1b604482015260640161039e565b600782815481106116465761164661217d565b90600052602060002090600b020160405180610160016040529081600082015481526020016001820160009054906101000a90046001600160a01b03166001600160a01b03166001600160a01b031681526020016002820180546116a9906121b9565b80601f01602080910402602001604051908101604052809291908181526020018280546116d5906121b9565b80156117225780601f106116f757610100808354040283529160200191611722565b820191906000526020600020905b81548152906001019060200180831161170557829003601f168201915b5050505050815260200160038201805461173b906121b9565b80601f0160208091040260200160405190810160405280929190818152602001828054611767906121b9565b80156117b45780601f10611789576101008083540402835291602001916117b4565b820191906000526020600020905b81548152906001019060200180831161179757829003601f168201915b505050505081526020016004820180546117cd906121b9565b80601f01602080910402602001604051908101604052809291908181526020018280546117f9906121b9565b80156118465780601f1061181b57610100808354040283529160200191611846565b820191906000526020600020905b81548152906001019060200180831161182957829003601f168201915b505050918352505060058201546020820152600682015460408201526007820154606082015260088201546080820152600982015460a0820152600a82015460c09091019060ff16600481111561189f5761189f611fbb565b60048111156118b0576118b0611fbb565b90525092915050565b60005b600082815260096020526040902054811015611a235760008281526009602052604081208054839081106118f2576118f261217d565b6000918252602080832060049092029091015485835260099091526040822080546001600160a01b03909216935090849081106119315761193161217d565b9060005260206000209060040201600101549050600160096000868152602001908152602001600020848154811061196b5761196b61217d565b906000526020600020906004020160030160006101000a81548160ff021916908315150217905550426009600086815260200190815260200160002084815481106119b8576119b861217d565b9060005260206000209060040201600201819055506119d78282611b9e565b6001600460010160008282546119ed91906121f4565b909155505060068054829190600090611a079084906121f4565b9250508190555050508080611a1b90612162565b9150506118bc565b5050565b600060078281548110611a3c57611a3c61217d565b90600052602060002090600b02016006015490506000606460015483611a62919061220b565b611a6c919061222a565b9050600460078481548110611a8357611a8361217d565b60009182526020909120600a600b9092020101805460ff19166001836004811115611ab057611ab0611fbb565b0217905550611af760078481548110611acb57611acb61217d565b600091825260209091206001600b9092020101546001600160a01b0316611af283856121f4565b611b9e565b600054611b0d906001600160a01b031682611b9e565b60078381548110611b2057611b2061217d565b90600052602060002090600b02016006015460036000828254611b4391906121f4565b9091555050604080518481526060602082018190526010908201526f141493d29150d508141052510813d55560821b608082015242818301529051339160008051602061224d833981519152919081900360a00190a2505050565b6000826001600160a01b03168260405160006040518083038185875af1925050503d8060008114611beb576040519150601f19603f3d011682016040523d82523d6000602084013e611bf0565b606091505b5050905080611bfe57600080fd5b505050565b6040518061016001604052806000815260200160006001600160a01b03168152602001606081526020016060815260200160608152602001600081526020016000815260200160008152602001600081526020016000815260200160006004811115611c7157611c71611fbb565b905290565b828054611c82906121b9565b90600052602060002090601f016020900481019282611ca45760008555611cea565b82601f10611cbd57805160ff1916838001178555611cea565b82800160010185558215611cea579182015b82811115611cea578251825591602001919060010190611ccf565b50611cf6929150611cfa565b5090565b5b80821115611cf65760008155600101611cfb565b634e487b7160e01b600052604160045260246000fd5b600082601f830112611d3657600080fd5b813567ffffffffffffffff80821115611d5157611d51611d0f565b604051601f8301601f19908116603f01168101908282118183101715611d7957611d79611d0f565b81604052838152866020858801011115611d9257600080fd5b836020870160208301376000602085830101528094505050505092915050565b600080600080600060a08688031215611dca57600080fd5b853567ffffffffffffffff80821115611de257600080fd5b611dee89838a01611d25565b96506020880135915080821115611e0457600080fd5b611e1089838a01611d25565b95506040880135915080821115611e2657600080fd5b50611e3388828901611d25565b9598949750949560608101359550608001359392505050565b600060208284031215611e5e57600080fd5b5035919050565b600080600080600060a08688031215611e7d57600080fd5b85359450602086013567ffffffffffffffff80821115611e9c57600080fd5b611ea889838a01611d25565b95506040880135915080821115611ebe57600080fd5b611eca89838a01611d25565b94506060880135915080821115611ee057600080fd5b50611eed88828901611d25565b95989497509295608001359392505050565b602080825282518282018190526000919060409081850190868401855b82811015611f6157815180516001600160a01b031685528681015187860152858101518686015260609081015115159085015260809093019290850190600101611f1c565b5091979650505050505050565b6000815180845260005b81811015611f9457602081850181015186830182015201611f78565b81811115611fa6576000602083870101525b50601f01601f19169290920160200192915050565b634e487b7160e01b600052602160045260246000fd5b60058110611fef57634e487b7160e01b600052602160045260246000fd5b9052565b600061016082518452602083015161201660208601826001600160a01b03169052565b50604083015181604086015261202e82860182611f6e565b915050606083015184820360608601526120488282611f6e565b915050608083015184820360808601526120628282611f6e565b91505060a083015160a085015260c083015160c085015260e083015160e0850152610100808401518186015250610120808401518186015250610140808401516120ae82870182611fd1565b5090949350505050565b6000602080830181845280855180835260408601915060408160051b870101925083870160005b8281101561210d57603f198886030184526120fb858351611ff3565b945092850192908501906001016120df565b5092979650505050505050565b60208152600061212d6020830184611ff3565b9392505050565b634e487b7160e01b600052601160045260246000fd5b6000821982111561215d5761215d612134565b500190565b600060001982141561217657612176612134565b5060010190565b634e487b7160e01b600052603260045260246000fd5b6020808252600c908201526b155b985d5d1a1bdc9a5e995960a21b604082015260600190565b600181811c908216806121cd57607f821691505b602082108114156121ee57634e487b7160e01b600052602260045260246000fd5b50919050565b60008282101561220657612206612134565b500390565b600081600019048311821515161561222557612225612134565b500290565b60008261224757634e487b7160e01b600052601260045260246000fd5b50049056feaee8e5d3bbb2f71a951b5632cee20f7ac487b9f8ab4f66a236f7694b13af7c6aa2646970667358221220e900b5b976a45e70a8eb75fc021b3f1a0061914f461177421b609a24c5c1819d64736f6c634300080b0033",
  "linkReferences": {},
  "deployedLinkReferences": {}
}