{
  "_format": "hh-sol-artifact-1",
  "contractName": "Crow",
  "sourceName": "src/contracts/Crow.sol",
  "abi": [
    {
      "inputs": [
        {
          "internalType": "uint256",
          "name": "_projectTax",
          "type": "uint256"
        }
      ],
      "stateMutability": "nonpayable",
      "type": "constructor"
    },
    {
      "anonymous": false,
      "inputs": [
        {
          "indexed": false,
          "internalType": "uint256",
          "name": "id",
          "type": "uint256"
        },
        {
          "indexed": false,
          "internalType": "string",
          "name": "actionType",
          "type": "string"
        },
        {
          "indexed": true,
          "internalType": "address",
          "name": "executor",
          "type": "address"
        },
        {
          "indexed": false,
          "internalType": "uint256",
          "name": "timestamp",
          "type": "uint256"
        }
      ],
      "name": "Action",
      "type": "event"
    },
    {
      "inputs": [
        {
          "internalType": "uint256",
          "name": "id",
          "type": "uint256"
        }
      ],
      "name": "backProject",
      "outputs": [
        {
          "internalType": "bool",
          "name": "",
          "type": "bool"
        }
      ],
      "stateMutability": "payable",
      "type": "function"
    },
    {
      "inputs": [],
      "name": "balance",
      "outputs": [
        {
          "internalType": "uint256",
          "name": "",
          "type": "uint256"
        }
      ],
      "stateMutability": "view",
      "type": "function"
    },
    {
      "inputs": [
        {
          "internalType": "uint256",
          "name": "_taxPct",
          "type": "uint256"
        }
      ],
      "name": "changeTax",
      "outputs": [],
      "stateMutability": "nonpayable",
      "type": "function"
    },
    {
      "inputs": [
        {
          "internalType": "string",
          "name": "title",
          "type": "string"
        },
        {
          "internalType": "string",
          "name": "description",
          "type": "string"
        },
        {
          "internalType": "string",
          "name": "imageURL",
          "type": "string"
        },
        {
          "internalType": "uint256",
          "name": "cost",
          "type": "uint256"
        },
        {
          "internalType": "uint256",
          "name": "expiresAt",
          "type": "uint256"
        }
      ],
      "name": "createProject",
      "outputs": [
        {
          "internalType": "bool",
          "name": "",
          "type": "bool"
        }
      ],
      "stateMutability": "nonpayable",
      "type": "function"
    },
    {
      "inputs": [
        {
          "internalType": "uint256",
          "name": "id",
          "type": "uint256"
        }
      ],
      "name": "deleteProject",
      "outputs": [
        {
          "internalType": "bool",
          "name": "",
          "type": "bool"
        }
      ],
      "stateMutability": "nonpayable",
      "type": "function"
    },
    {
      "inputs": [
        {
          "internalType": "uint256",
          "name": "id",
          "type": "uint256"
        }
      ],
      "name": "getBackers",
      "outputs": [
        {
          "components": [
            {
              "internalType": "address",
              "name": "owner",
              "type": "address"
            },
            {
              "internalType": "uint256",
              "name": "contribution",
              "type": "uint256"
            },
            {
              "internalType": "uint256",
              "name": "timestamp",
              "type": "uint256"
            },
            {
              "internalType": "bool",
              "name": "refunded",
              "type": "bool"
            }
          ],
          "internalType": "struct Crow.backerStruct[]",
          "name": "",
          "type": "tuple[]"
        }
      ],
      "stateMutability": "view",
      "type": "function"
    },
    {
      "inputs": [
        {
          "internalType": "uint256",
          "name": "id",
          "type": "uint256"
        }
      ],
      "name": "getProject",
      "outputs": [
        {
          "components": [
            {
              "internalType": "uint256",
              "name": "id",
              "type": "uint256"
            },
            {
              "internalType": "address",
              "name": "owner",
              "type": "address"
            },
            {
              "internalType": "string",
              "name": "title",
              "type": "string"
            },
            {
              "internalType": "string",
              "name": "description",
              "type": "string"
            },
            {
              "internalType": "string",
              "name": "imageURL",
              "type": "string"
            },
            {
              "internalType": "uint256",
              "name": "cost",
              "type": "uint256"
            },
            {
              "internalType": "uint256",
              "name": "raised",
              "type": "uint256"
            },
            {
              "internalType": "uint256",
              "name": "timestamp",
              "type": "uint256"
            },
            {
              "internalType": "uint256",
              "name": "expiresAt",
              "type": "uint256"
            },
            {
              "internalType": "uint256",
              "name": "backers",
              "type": "uint256"
            },
            {
              "internalType": "enum Crow.statusEnum",
              "name": "status",
              "type": "uint8"
            }
          ],
          "internalType": "struct Crow.projectStruct",
          "name": "",
          "type": "tuple"
        }
      ],
      "stateMutability": "view",
      "type": "function"
    },
    {
      "inputs": [],
      "name": "getProjects",
      "outputs": [
        {
          "components": [
            {
              "internalType": "uint256",
              "name": "id",
              "type": "uint256"
            },
            {
              "internalType": "address",
              "name": "owner",
              "type": "address"
            },
            {
              "internalType": "string",
              "name": "title",
              "type": "string"
            },
            {
              "internalType": "string",
              "name": "description",
              "type": "string"
            },
            {
              "internalType": "string",
              "name": "imageURL",
              "type": "string"
            },
            {
              "internalType": "uint256",
              "name": "cost",
              "type": "uint256"
            },
            {
              "internalType": "uint256",
              "name": "raised",
              "type": "uint256"
            },
            {
              "internalType": "uint256",
              "name": "timestamp",
              "type": "uint256"
            },
            {
              "internalType": "uint256",
              "name": "expiresAt",
              "type": "uint256"
            },
            {
              "internalType": "uint256",
              "name": "backers",
              "type": "uint256"
            },
            {
              "internalType": "enum Crow.statusEnum",
              "name": "status",
              "type": "uint8"
            }
          ],
          "internalType": "struct Crow.projectStruct[]",
          "name": "",
          "type": "tuple[]"
        }
      ],
      "stateMutability": "view",
      "type": "function"
    },
    {
      "inputs": [],
      "name": "owner",
      "outputs": [
        {
          "internalType": "address",
          "name": "",
          "type": "address"
        }
      ],
      "stateMutability": "view",
      "type": "function"
    },
    {
      "inputs": [
        {
          "internalType": "uint256",
          "name": "id",
          "type": "uint256"
        }
      ],
      "name": "payOutProject",
      "outputs": [
        {
          "internalType": "bool",
          "name": "",
          "type": "bool"
        }
      ],
      "stateMutability": "nonpayable",
      "type": "function"
    },
    {
      "inputs": [],
      "name": "projectCount",
      "outputs": [
        {
          "internalType": "uint256",
          "name": "",
          "type": "uint256"
        }
      ],
      "stateMutability": "view",
      "type": "function"
    },
    {
      "inputs": [
        {
          "internalType": "uint256",
          "name": "",
          "type": "uint256"
        }
      ],
      "name": "projectExist",
      "outputs": [
        {
          "internalType": "bool",
          "name": "",
          "type": "bool"
        }
      ],
      "stateMutability": "view",
      "type": "function"
    },
    {
      "inputs": [],
      "name": "projectTax",
      "outputs": [
        {
          "internalType": "uint256",
          "name": "",
          "type": "uint256"
        }
      ],
      "stateMutability": "view",
      "type": "function"
    },
    {
      "inputs": [
        {
          "internalType": "uint256",
          "name": "id",
          "type": "uint256"
        }
      ],
      "name": "requestRefund",
      "outputs": [
        {
          "internalType": "bool",
          "name": "",
          "type": "bool"
        }
      ],
      "stateMutability": "nonpayable",
      "type": "function"
    },
    {
      "inputs": [],
      "name": "stats",
      "outputs": [
        {
          "internalType": "uint256",
          "name": "totalProjects",
          "type": "uint256"
        },
        {
          "internalType": "uint256",
          "name": "totalBacking",
          "type": "uint256"
        },
        {
          "internalType": "uint256",
          "name": "totalDonations",
          "type": "uint256"
        }
      ],
      "stateMutability": "view",
      "type": "function"
    },
    {
      "inputs": [
        {
          "internalType": "uint256",
          "name": "id",
          "type": "uint256"
        },
        {
          "internalType": "string",
          "name": "title",
          "type": "string"
        },
        {
          "internalType": "string",
          "name": "description",
          "type": "string"
        },
        {
          "internalType": "string",
          "name": "imageURL",
          "type": "string"
        },
        {
          "internalType": "uint256",
          "name": "expiresAt",
          "type": "uint256"
        }
      ],
      "name": "updateProject",
      "outputs": [
        {
          "internalType": "bool",
          "name": "",
          "type": "bool"
        }
      ],
      "stateMutability": "nonpayable",
      "type": "function"
    }
  ],
  "bytecode": "0x608060405234801561001057600080fd5b506040516122fc3803806122fc83398101604081905261002f91610049565b600080546001600160a01b03191633179055600155610062565b60006020828403121561005b57600080fd5b5051919050565b61228b806100716000396000f3fe6080604052600436106100f35760003560e01c8063a4b2409e1161008a578063d24cd3ec11610059578063d24cd3ec146102b1578063d80528ae146102c7578063dcc6012814610301578063f0f3f2c81461032357600080fd5b8063a4b2409e1461022e578063b531dcba1461024e578063b69ef8a81461026e578063c9168b721461028457600080fd5b80638593054b116100c65780638593054b146101935780638da5cb5b146101c35780639a3fa8c7146101fb5780639f39a1941461021b57600080fd5b8063056c29ee146100f857806336fbad261461012d5780633e45c8af146101515780634cd0cb2814610173575b600080fd5b34801561010457600080fd5b50610118610113366004611d9b565b610350565b60405190151581526020015b60405180910390f35b34801561013957600080fd5b5061014360025481565b604051908152602001610124565b34801561015d57600080fd5b5061017161016c366004611e35565b610818565b005b34801561017f57600080fd5b5061011861018e366004611e35565b610895565b34801561019f57600080fd5b506101186101ae366004611e35565b600a6020526000908152604090205460ff1681565b3480156101cf57600080fd5b506000546101e3906001600160a01b031681565b6040516001600160a01b039091168152602001610124565b34801561020757600080fd5b50610118610216366004611e4e565b610a22565b610118610229366004611e35565b610c96565b34801561023a57600080fd5b50610118610249366004611e35565b611096565b34801561025a57600080fd5b50610118610269366004611e35565b61118d565b34801561027a57600080fd5b5061014360035481565b34801561029057600080fd5b506102a461029f366004611e35565b611285565b6040516101249190611ee8565b3480156102bd57600080fd5b5061014360015481565b3480156102d357600080fd5b506004546005546006546102e692919083565b60408051938452602084019290925290820152606001610124565b34801561030d57600080fd5b50610316611327565b60405161012491906120a1565b34801561032f57600080fd5b5061034361033e366004611e35565b6115c2565b6040516101249190612103565b6000808651116103a75760405162461bcd60e51b815260206004820152601c60248201527f5469746c65206d7573742062652067726561746572207468616e20300000000060448201526064015b60405180910390fd5b60008551116103f85760405162461bcd60e51b815260206004820152601b60248201527f4465736372697074696f6e2063616e6e6f7420626520656d7074790000000000604482015260640161039e565b60008451116104415760405162461bcd60e51b8152602060048201526015602482015274496d6167652063616e6e6f7420626520656d70747960581b604482015260640161039e565b600083116104915760405162461bcd60e51b815260206004820152601b60248201527f636f7374206d7573742062652067726561746572207468616e20300000000000604482015260640161039e565b600083116104e15760405162461bcd60e51b815260206004820152601b60248201527f636f7374206d7573742062652067726561746572207468616e20300000000000604482015260640161039e565b6104e9611bec565b600254815233602080830191825260408301898152606084018990526080840188905260a084018790524260e085015261010084018690526007805460018101825560009190915284517fa66cc928b5edb82af9bd49922954155ab7b0942694bea4ce44661d9a8736c688600b90920291820190815593517fa66cc928b5edb82af9bd49922954155ab7b0942694bea4ce44661d9a8736c689820180546001600160a01b0319166001600160a01b03909216919091179055905180518594936105d6937fa66cc928b5edb82af9bd49922954155ab7b0942694bea4ce44661d9a8736c68a01920190611c5f565b50606082015180516105f2916003840191602090910190611c5f565b506080820151805161060e916004840191602090910190611c5f565b5060a0820151600582015560c0820151600682015560e0820151600782015561010082015160088201556101208201516009820155610140820151600a8201805460ff1916600183600481111561066757610667611fa4565b021790555050600280546000908152600a602090815260408083208054600160ff1990911681179091553384526008835281842080548083018255908552938390208751600b909502019384558683015190840180546001600160a01b0319166001600160a01b03909216919091179055850151805186955092936106f493908501929190910190611c5f565b5060608201518051610710916003840191602090910190611c5f565b506080820151805161072c916004840191602090910190611c5f565b5060a0820151600582015560c0820151600682015560e0820151600782015561010082015160088201556101208201516009820155610140820151600a8201805460ff1916600183600481111561078557610785611fa4565b021790555050506001600460000160008282546107a29190612133565b9091555050600280543391600080516020612236833981519152919060006107c98361214b565b9091555060408051918252606060208301819052600f908301526e141493d29150d50810d49150551151608a1b6080830152429082015260a00160405180910390a25060019695505050505050565b6000546001600160a01b031633146108905760405162461bcd60e51b815260206004820152603560248201527f4f6e6c79204f776e65722068617320746865207065726d697373696f6e2c20416044820152741d5d1a1bdc9a5e985d1a5bdb8814995d995c9cd959605a1b606482015260840161039e565b600155565b6000600782815481106108aa576108aa612166565b60009182526020909120600b90910201600101546001600160a01b03163314806108de57506000546001600160a01b031633145b6108fa5760405162461bcd60e51b815260040161039e9061217c565b60006007838154811061090f5761090f612166565b60009182526020909120600a600b90920201015460ff16600481111561093757610937611fa4565b1461097a5760405162461bcd60e51b8152602060048201526013602482015272283937b532b1ba1034b9903737ba1037b832b760691b604482015260640161039e565b60036007838154811061098f5761098f612166565b60009182526020909120600a600b9092020101805460ff191660018360048111156109bc576109bc611fa4565b02179055506109ca826118a2565b60408051838152606060208201819052600f908201526e141493d29150d50811115311551151608a1b6080820152428183015290513391600080516020612236833981519152919081900360a00190a2506001919050565b600060078681548110610a3757610a37612166565b60009182526020909120600b90910201600101546001600160a01b03163314610a725760405162461bcd60e51b815260040161039e9061217c565b6000855111610abb5760405162461bcd60e51b81526020600482015260156024820152745469746c652063616e6e6f7420626520656d70747960581b604482015260640161039e565b6000845111610b0c5760405162461bcd60e51b815260206004820152601b60248201527f4465736372697074696f6e2063616e6e6f7420626520656d7074790000000000604482015260640161039e565b6000835111610b555760405162461bcd60e51b8152602060048201526015602482015274496d6167652063616e6e6f7420626520656d70747960581b604482015260640161039e565b8460078781548110610b6957610b69612166565b90600052602060002090600b02016002019080519060200190610b8d929190611c5f565b508360078781548110610ba257610ba2612166565b90600052602060002090600b02016003019080519060200190610bc6929190611c5f565b508260078781548110610bdb57610bdb612166565b90600052602060002090600b02016004019080519060200190610bff929190611c5f565b508160078781548110610c1457610c14612166565b90600052602060002090600b020160080181905550336001600160a01b03166000805160206122368339815191528742604051610c82929190918252606060208301819052600f908301526e141493d29150d50815541110551151608a1b6080830152604082015260a00190565b60405180910390a250600195945050505050565b6000803411610cde5760405162461bcd60e51b815260206004820152601460248201527345746865722063616e6e6f74206265205a65726f60601b604482015260640161039e565b6000828152600a602052604090205460ff16610d355760405162461bcd60e51b8152602060048201526016602482015275141c9bda9958dd08191bd95cc81b9bdd08115e1a5cdd60521b604482015260640161039e565b600060078381548110610d4a57610d4a612166565b60009182526020909120600a600b90920201015460ff166004811115610d7257610d72611fa4565b14610db05760405162461bcd60e51b815260206004820152600e60248201526d141c9bda9958dd0810db1bdcd95960921b604482015260640161039e565b600160046001016000828254610dc69190612133565b909155505060068054349190600090610de0908490612133565b925050819055503460078381548110610dfb57610dfb612166565b90600052602060002090600b02016006016000828254610e1b9190612133565b92505081905550600160078381548110610e3757610e37612166565b90600052602060002090600b02016009016000828254610e579190612133565b9091555050600082815260096020908152604080832081516080808201845233808352348387019081524284870181815260608087018b8152885460018082018b55998d529b8b902097516004909c0290970180546001600160a01b0319166001600160a01b03909c169b909b178b559251968a01969096559451600289015592516003909701805460ff1916971515979097179096558351888152948501829052600e918501919091526d141493d29150d508109050d2d15160921b90840152908201526000805160206122368339815191529060a00160405180910390a260078281548110610f4a57610f4a612166565b90600052602060002090600b02016005015460078381548110610f6f57610f6f612166565b90600052602060002090600b0201600601541061101a57600160078381548110610f9b57610f9b612166565b60009182526020909120600a600b9092020101805460ff19166001836004811115610fc857610fc8611fa4565b021790555060078281548110610fe057610fe0612166565b90600052602060002090600b020160060154600360008282546110039190612133565b90915550611012905082611a10565b506001919050565b6007828154811061102d5761102d612166565b90600052602060002090600b0201600801544210156110125760026007838154811061105b5761105b612166565b60009182526020909120600a600b9092020101805460ff1916600183600481111561108857611088611fa4565b0217905550611012826118a2565b60006002600783815481106110ad576110ad612166565b60009182526020909120600a600b90920201015460ff1660048111156110d5576110d5611fa4565b14158061111d57506003600783815481106110f2576110f2612166565b60009182526020909120600a600b90920201015460ff16600481111561111a5761111a611fa4565b14155b6111785760405162461bcd60e51b815260206004820152602660248201527f50726f6a656374206e6f74206d61726b656420617320726576657274206f722060448201526564656c65746560d01b606482015260840161039e565b60026007838154811061105b5761105b612166565b60006001600783815481106111a4576111a4612166565b60009182526020909120600a600b90920201015460ff1660048111156111cc576111cc611fa4565b146112195760405162461bcd60e51b815260206004820152601a60248201527f50726f6a656374206e6f206c6f6e67657220415050524f564544000000000000604482015260640161039e565b6007828154811061122c5761122c612166565b60009182526020909120600b90910201600101546001600160a01b031633148061126057506000546001600160a01b031633145b61127c5760405162461bcd60e51b815260040161039e9061217c565b61101282611a10565b606060096000838152602001908152602001600020805480602002602001604051908101604052809291908181526020016000905b8282101561131c576000848152602090819020604080516080810182526004860290920180546001600160a01b03168352600180820154848601526002820154928401929092526003015460ff161515606083015290835290920191016112ba565b505050509050919050565b60606007805480602002602001604051908101604052809291908181526020016000905b828210156115b95760008481526020908190206040805161016081018252600b86029092018054835260018101546001600160a01b0316938301939093526002830180549293929184019161139f906121a2565b80601f01602080910402602001604051908101604052809291908181526020018280546113cb906121a2565b80156114185780601f106113ed57610100808354040283529160200191611418565b820191906000526020600020905b8154815290600101906020018083116113fb57829003601f168201915b50505050508152602001600382018054611431906121a2565b80601f016020809104026020016040519081016040528092919081815260200182805461145d906121a2565b80156114aa5780601f1061147f576101008083540402835291602001916114aa565b820191906000526020600020905b81548152906001019060200180831161148d57829003601f168201915b505050505081526020016004820180546114c3906121a2565b80601f01602080910402602001604051908101604052809291908181526020018280546114ef906121a2565b801561153c5780601f106115115761010080835404028352916020019161153c565b820191906000526020600020905b81548152906001019060200180831161151f57829003601f168201915b505050918352505060058201546020820152600682015460408201526007820154606082015260088201546080820152600982015460a0820152600a82015460c09091019060ff16600481111561159557611595611fa4565b60048111156115a6576115a6611fa4565b815250508152602001906001019061134b565b50505050905090565b6115ca611bec565b6000828152600a602052604090205460ff1661161c5760405162461bcd60e51b8152602060048201526011602482015270141c9bda9958dd081b9bdd08199bdd5b99607a1b604482015260640161039e565b6007828154811061162f5761162f612166565b90600052602060002090600b020160405180610160016040529081600082015481526020016001820160009054906101000a90046001600160a01b03166001600160a01b03166001600160a01b03168152602001600282018054611692906121a2565b80601f01602080910402602001604051908101604052809291908181526020018280546116be906121a2565b801561170b5780601f106116e05761010080835404028352916020019161170b565b820191906000526020600020905b8154815290600101906020018083116116ee57829003601f168201915b50505050508152602001600382018054611724906121a2565b80601f0160208091040260200160405190810160405280929190818152602001828054611750906121a2565b801561179d5780601f106117725761010080835404028352916020019161179d565b820191906000526020600020905b81548152906001019060200180831161178057829003601f168201915b505050505081526020016004820180546117b6906121a2565b80601f01602080910402602001604051908101604052809291908181526020018280546117e2906121a2565b801561182f5780601f106118045761010080835404028352916020019161182f565b820191906000526020600020905b81548152906001019060200180831161181257829003601f168201915b505050918352505060058201546020820152600682015460408201526007820154606082015260088201546080820152600982015460a0820152600a82015460c09091019060ff16600481111561188857611888611fa4565b600481111561189957611899611fa4565b90525092915050565b60005b600082815260096020526040902054811015611a0c5760008281526009602052604081208054839081106118db576118db612166565b6000918252602080832060049092029091015485835260099091526040822080546001600160a01b039092169350908490811061191a5761191a612166565b9060005260206000209060040201600101549050600160096000868152602001908152602001600020848154811061195457611954612166565b906000526020600020906004020160030160006101000a81548160ff021916908315150217905550426009600086815260200190815260200160002084815481106119a1576119a1612166565b9060005260206000209060040201600201819055506119c08282611b87565b6001600460010160008282546119d691906121dd565b9091555050600680548291906000906119f09084906121dd565b9250508190555050508080611a049061214b565b9150506118a5565b5050565b600060078281548110611a2557611a25612166565b90600052602060002090600b02016006015490506000606460015483611a4b91906121f4565b611a559190612213565b9050600460078481548110611a6c57611a6c612166565b60009182526020909120600a600b9092020101805460ff19166001836004811115611a9957611a99611fa4565b0217905550611ae060078481548110611ab457611ab4612166565b600091825260209091206001600b9092020101546001600160a01b0316611adb83856121dd565b611b87565b600054611af6906001600160a01b031682611b87565b60078381548110611b0957611b09612166565b90600052602060002090600b02016006015460036000828254611b2c91906121dd565b9091555050604080518481526060602082018190526010908201526f141493d29150d508141052510813d55560821b6080820152428183015290513391600080516020612236833981519152919081900360a00190a2505050565b6000826001600160a01b03168260405160006040518083038185875af1925050503d8060008114611bd4576040519150601f19603f3d011682016040523d82523d6000602084013e611bd9565b606091505b5050905080611be757600080fd5b505050565b6040518061016001604052806000815260200160006001600160a01b03168152602001606081526020016060815260200160608152602001600081526020016000815260200160008152602001600081526020016000815260200160006004811115611c5a57611c5a611fa4565b905290565b828054611c6b906121a2565b90600052602060002090601f016020900481019282611c8d5760008555611cd3565b82601f10611ca657805160ff1916838001178555611cd3565b82800160010185558215611cd3579182015b82811115611cd3578251825591602001919060010190611cb8565b50611cdf929150611ce3565b5090565b5b80821115611cdf5760008155600101611ce4565b634e487b7160e01b600052604160045260246000fd5b600082601f830112611d1f57600080fd5b813567ffffffffffffffff80821115611d3a57611d3a611cf8565b604051601f8301601f19908116603f01168101908282118183101715611d6257611d62611cf8565b81604052838152866020858801011115611d7b57600080fd5b836020870160208301376000602085830101528094505050505092915050565b600080600080600060a08688031215611db357600080fd5b853567ffffffffffffffff80821115611dcb57600080fd5b611dd789838a01611d0e565b96506020880135915080821115611ded57600080fd5b611df989838a01611d0e565b95506040880135915080821115611e0f57600080fd5b50611e1c88828901611d0e565b9598949750949560608101359550608001359392505050565b600060208284031215611e4757600080fd5b5035919050565b600080600080600060a08688031215611e6657600080fd5b85359450602086013567ffffffffffffffff80821115611e8557600080fd5b611e9189838a01611d0e565b95506040880135915080821115611ea757600080fd5b611eb389838a01611d0e565b94506060880135915080821115611ec957600080fd5b50611ed688828901611d0e565b95989497509295608001359392505050565b602080825282518282018190526000919060409081850190868401855b82811015611f4a57815180516001600160a01b031685528681015187860152858101518686015260609081015115159085015260809093019290850190600101611f05565b5091979650505050505050565b6000815180845260005b81811015611f7d57602081850181015186830182015201611f61565b81811115611f8f576000602083870101525b50601f01601f19169290920160200192915050565b634e487b7160e01b600052602160045260246000fd5b60058110611fd857634e487b7160e01b600052602160045260246000fd5b9052565b6000610160825184526020830151611fff60208601826001600160a01b03169052565b50604083015181604086015261201782860182611f57565b915050606083015184820360608601526120318282611f57565b9150506080830151848203608086015261204b8282611f57565b91505060a083015160a085015260c083015160c085015260e083015160e08501526101008084015181860152506101208084015181860152506101408084015161209782870182611fba565b5090949350505050565b6000602080830181845280855180835260408601915060408160051b870101925083870160005b828110156120f657603f198886030184526120e4858351611fdc565b945092850192908501906001016120c8565b5092979650505050505050565b6020815260006121166020830184611fdc565b9392505050565b634e487b7160e01b600052601160045260246000fd5b600082198211156121465761214661211d565b500190565b600060001982141561215f5761215f61211d565b5060010190565b634e487b7160e01b600052603260045260246000fd5b6020808252600c908201526b155b985d5d1a1bdc9a5e995960a21b604082015260600190565b600181811c908216806121b657607f821691505b602082108114156121d757634e487b7160e01b600052602260045260246000fd5b50919050565b6000828210156121ef576121ef61211d565b500390565b600081600019048311821515161561220e5761220e61211d565b500290565b60008261223057634e487b7160e01b600052601260045260246000fd5b50049056feaee8e5d3bbb2f71a951b5632cee20f7ac487b9f8ab4f66a236f7694b13af7c6aa2646970667358221220410659737c8638f128229538c48dc3dee709ac41073989e53e3eee6919e1276664736f6c634300080b0033",
  "linkReferences": {},
  "deployedLinkReferences": {}
}